{
  "_format": "hh-sol-artifact-1",
  "contractName": "OptimizedHealthCare",
  "sourceName": "contracts/optimized_healthCare.sol",
  "abi": [
    {
      "inputs": [],
      "stateMutability": "nonpayable",
      "type": "constructor"
    },
    {
      "anonymous": false,
      "inputs": [
        {
          "indexed": true,
          "internalType": "address",
          "name": "patient",
          "type": "address"
        },
        {
          "indexed": true,
          "internalType": "address",
          "name": "doctor",
          "type": "address"
        }
      ],
      "name": "AccessGranted",
      "type": "event"
    },
    {
      "anonymous": false,
      "inputs": [
        {
          "indexed": true,
          "internalType": "address",
          "name": "patient",
          "type": "address"
        },
        {
          "indexed": true,
          "internalType": "address",
          "name": "doctor",
          "type": "address"
        }
      ],
      "name": "AccessRevoked",
      "type": "event"
    },
    {
      "anonymous": false,
      "inputs": [
        {
          "indexed": true,
          "internalType": "address",
          "name": "owner",
          "type": "address"
        }
      ],
      "name": "ContractPaused",
      "type": "event"
    },
    {
      "anonymous": false,
      "inputs": [
        {
          "indexed": true,
          "internalType": "address",
          "name": "owner",
          "type": "address"
        }
      ],
      "name": "ContractUnpaused",
      "type": "event"
    },
    {
      "anonymous": false,
      "inputs": [
        {
          "indexed": true,
          "internalType": "address",
          "name": "doctor",
          "type": "address"
        },
        {
          "indexed": false,
          "internalType": "string",
          "name": "name",
          "type": "string"
        }
      ],
      "name": "DoctorRegistered",
      "type": "event"
    },
    {
      "anonymous": false,
      "inputs": [
        {
          "indexed": true,
          "internalType": "address",
          "name": "patient",
          "type": "address"
        },
        {
          "indexed": false,
          "internalType": "string",
          "name": "fileName",
          "type": "string"
        }
      ],
      "name": "FileAdded",
      "type": "event"
    },
    {
      "anonymous": false,
      "inputs": [
        {
          "indexed": true,
          "internalType": "address",
          "name": "hospital",
          "type": "address"
        },
        {
          "indexed": false,
          "internalType": "string",
          "name": "name",
          "type": "string"
        }
      ],
      "name": "HospitalRegistered",
      "type": "event"
    },
    {
      "anonymous": false,
      "inputs": [
        {
          "indexed": true,
          "internalType": "address",
          "name": "patient",
          "type": "address"
        },
        {
          "indexed": false,
          "internalType": "string",
          "name": "name",
          "type": "string"
        }
      ],
      "name": "PatientRegistered",
      "type": "event"
    },
    {
      "inputs": [
        {
          "internalType": "string",
          "name": "_fileName",
          "type": "string"
        },
        {
          "internalType": "string",
          "name": "_fileType",
          "type": "string"
        },
        {
          "internalType": "string",
          "name": "_fileHash",
          "type": "string"
        }
      ],
      "name": "addFile",
      "outputs": [],
      "stateMutability": "nonpayable",
      "type": "function"
    },
    {
      "inputs": [
        {
          "internalType": "address",
          "name": "_doctor",
          "type": "address"
        }
      ],
      "name": "getDoctorInfo",
      "outputs": [
        {
          "internalType": "string",
          "name": "name",
          "type": "string"
        },
        {
          "internalType": "string",
          "name": "contact",
          "type": "string"
        },
        {
          "internalType": "string",
          "name": "specialization",
          "type": "string"
        },
        {
          "internalType": "address[]",
          "name": "patientList",
          "type": "address[]"
        },
        {
          "internalType": "bool",
          "name": "isActive",
          "type": "bool"
        }
      ],
      "stateMutability": "view",
      "type": "function"
    },
    {
      "inputs": [
        {
          "internalType": "address",
          "name": "_hospital",
          "type": "address"
        }
      ],
      "name": "getHospitalInfo",
      "outputs": [
        {
          "internalType": "string",
          "name": "name",
          "type": "string"
        },
        {
          "internalType": "string",
          "name": "location",
          "type": "string"
        },
        {
          "internalType": "bool",
          "name": "isActive",
          "type": "bool"
        }
      ],
      "stateMutability": "view",
      "type": "function"
    },
    {
      "inputs": [
        {
          "internalType": "address",
          "name": "_patient",
          "type": "address"
        }
      ],
      "name": "getPatientFiles",
      "outputs": [
        {
          "components": [
            {
              "internalType": "string",
              "name": "fileName",
              "type": "string"
            },
            {
              "internalType": "string",
              "name": "fileType",
              "type": "string"
            },
            {
              "internalType": "string",
              "name": "fileHash",
              "type": "string"
            },
            {
              "internalType": "uint256",
              "name": "timestamp",
              "type": "uint256"
            }
          ],
          "internalType": "struct OptimizedHealthCare.Files[]",
          "name": "",
          "type": "tuple[]"
        }
      ],
      "stateMutability": "view",
      "type": "function"
    },
    {
      "inputs": [
        {
          "internalType": "address",
          "name": "_patient",
          "type": "address"
        }
      ],
      "name": "getPatientInfo",
      "outputs": [
        {
          "internalType": "string",
          "name": "name",
          "type": "string"
        },
        {
          "internalType": "string",
          "name": "dob",
          "type": "string"
        },
        {
          "internalType": "string",
          "name": "gender",
          "type": "string"
        },
        {
          "internalType": "string",
          "name": "contactInfo",
          "type": "string"
        },
        {
          "internalType": "address[]",
          "name": "doctorList",
          "type": "address[]"
        }
      ],
      "stateMutability": "view",
      "type": "function"
    },
    {
      "inputs": [
        {
          "internalType": "address",
          "name": "_doctorId",
          "type": "address"
        }
      ],
      "name": "grantAccess",
      "outputs": [],
      "stateMutability": "nonpayable",
      "type": "function"
    },
    {
      "inputs": [
        {
          "internalType": "address",
          "name": "_patient",
          "type": "address"
        },
        {
          "internalType": "address",
          "name": "_doctor",
          "type": "address"
        }
      ],
      "name": "hasAccess",
      "outputs": [
        {
          "internalType": "bool",
          "name": "",
          "type": "bool"
        }
      ],
      "stateMutability": "view",
      "type": "function"
    },
    {
      "inputs": [
        {
          "internalType": "string",
          "name": "_name",
          "type": "string"
        },
        {
          "internalType": "string",
          "name": "_contact",
          "type": "string"
        },
        {
          "internalType": "string",
          "name": "_specialization",
          "type": "string"
        }
      ],
      "name": "registerDoctor",
      "outputs": [],
      "stateMutability": "nonpayable",
      "type": "function"
    },
    {
      "inputs": [
        {
          "internalType": "address",
          "name": "_id",
          "type": "address"
        },
        {
          "internalType": "string",
          "name": "_name",
          "type": "string"
        },
        {
          "internalType": "string",
          "name": "_location",
          "type": "string"
        }
      ],
      "name": "registerHospital",
      "outputs": [],
      "stateMutability": "nonpayable",
      "type": "function"
    },
    {
      "inputs": [
        {
          "internalType": "string",
          "name": "_name",
          "type": "string"
        },
        {
          "internalType": "string",
          "name": "_dob",
          "type": "string"
        },
        {
          "internalType": "string",
          "name": "_gender",
          "type": "string"
        },
        {
          "internalType": "string",
          "name": "_contactInfo",
          "type": "string"
        }
      ],
      "name": "registerPatient",
      "outputs": [],
      "stateMutability": "nonpayable",
      "type": "function"
    },
    {
      "inputs": [
        {
          "internalType": "address",
          "name": "_doctorId",
          "type": "address"
        }
      ],
      "name": "revokeAccess",
      "outputs": [],
      "stateMutability": "nonpayable",
      "type": "function"
    },
    {
      "inputs": [],
      "name": "togglePause",
      "outputs": [],
      "stateMutability": "nonpayable",
      "type": "function"
    }
  ],
  "bytecode": "0x60a060405234801561001057600080fd5b5033606081901b6080526123bf610055600039600081816103fb0152818161061a015281816115140152818161178e015281816117f2015261184b01526123bf6000f3fe608060405234801561001057600080fd5b50600436106100b45760003560e01c80636f12fc35116100715780636f12fc35146101545780638486f67a1461017857806385e685311461019a578063c1816dfb146101ad578063c4ae3168146101cd578063d45a5685146101d5576100b4565b80630ae5e739146100b95780631709ef07146100ce57806349d41e83146100f75780634b4261781461010a5780634ba0a0201461012e57806350c7a91214610141575b600080fd5b6100cc6100c7366004611b84565b6101e8565b005b6100e16100dc366004611ba5565b6103c2565b6040516100ee9190611e73565b60405180910390f35b6100cc610105366004611bd7565b6103f0565b61011d610118366004611b84565b6105c9565b6040516100ee959493929190611f2b565b6100cc61013c366004611c94565b610927565b6100cc61014f366004611c48565b610b3e565b610167610162366004611b84565b610cf8565b6040516100ee959493929190611ec9565b61018b610186366004611b84565b610f70565b6040516100ee93929190611e91565b6100cc6101a8366004611b84565b61111d565b6101c06101bb366004611b84565b6114c7565b6040516100ee9190611dca565b6100cc611783565b6100cc6101e3366004611c48565b611895565b3360009081526002602052604090206006015460ff166102235760405162461bcd60e51b815260040161021a90612145565b60405180910390fd5b60005460ff16156102465760405162461bcd60e51b815260040161021a90612282565b6001600160a01b03811661026c5760405162461bcd60e51b815260040161021a90611fe8565b6001600160a01b03811660009081526001602052604090206005015460ff166102a75760405162461bcd60e51b815260040161021a90612074565b3360009081526003602090815260408083206001600160a01b038516845290915290205460ff16156102eb5760405162461bcd60e51b815260040161021a90612018565b336001600160a01b03821614156103145760405162461bcd60e51b815260040161021a906120ab565b3360008181526003602090815260408083206001600160a01b038616808552908352818420805460ff1916600190811790915585855260028452828520600501805480830182559086528486200180546001600160a01b031990811684179091558286528185528386206004018054928301815586529385200180549093168517909255519092917f9f520b3bfc56d06f7065d10b4683b3f57ac8895d5026cd176dee95ce1454cb8d91a350565b6001600160a01b03918216600090815260036020908152604080832093909416825291909152205460ff1690565b336001600160a01b037f000000000000000000000000000000000000000000000000000000000000000016146104385760405162461bcd60e51b815260040161021a906122ae565b60005460ff161561045b5760405162461bcd60e51b815260040161021a90612282565b6001600160a01b0383166104815760405162461bcd60e51b815260040161021a90611fbf565b6001600160a01b03831660009081526005602052604090206003015460ff16156104bd5760405162461bcd60e51b815260040161021a906121ea565b60008251116104de5760405162461bcd60e51b815260040161021a90611f98565b604080516080810182526001600160a01b03858116808352602080840187815284860187905260016060860181905260009384526005835295909220845181546001600160a01b031916941693909317835590518051939492936105499385019291909101906119fe565b50604082015180516105659160028401916020909101906119fe565b50606091909101516003909101805460ff19169115159190911790556040516001600160a01b038416907f72cefccb74b7edacb21023a72b39a2cecb1123ba70d1eea03d3509d046b941c2906105bc908590611e7e565b60405180910390a2505050565b606080808080336001600160a01b038716148061060957506001600160a01b038616600090815260036020908152604080832033845290915290205460ff165b8061063c5750336001600160a01b037f000000000000000000000000000000000000000000000000000000000000000016145b6106585760405162461bcd60e51b815260040161021a90612191565b6001600160a01b0386166000908152600260205260409020805481906001820190600383019060048401906005850190859061069390612307565b80601f01602080910402602001604051908101604052809291908181526020018280546106bf90612307565b801561070c5780601f106106e15761010080835404028352916020019161070c565b820191906000526020600020905b8154815290600101906020018083116106ef57829003601f168201915b5050505050945083805461071f90612307565b80601f016020809104026020016040519081016040528092919081815260200182805461074b90612307565b80156107985780601f1061076d57610100808354040283529160200191610798565b820191906000526020600020905b81548152906001019060200180831161077b57829003601f168201915b505050505093508280546107ab90612307565b80601f01602080910402602001604051908101604052809291908181526020018280546107d790612307565b80156108245780601f106107f957610100808354040283529160200191610824565b820191906000526020600020905b81548152906001019060200180831161080757829003601f168201915b5050505050925081805461083790612307565b80601f016020809104026020016040519081016040528092919081815260200182805461086390612307565b80156108b05780601f10610885576101008083540402835291602001916108b0565b820191906000526020600020905b81548152906001019060200180831161089357829003601f168201915b505050505091508080548060200260200160405190810160405280929190818152602001828054801561090c57602002820191906000526020600020905b81546001600160a01b031681526001909101906020018083116108ee575b50505050509050955095509550955095505091939590929450565b60005460ff161561094a5760405162461bcd60e51b815260040161021a90612282565b600084511161096b5760405162461bcd60e51b815260040161021a90611f98565b3360009081526002602052604090206006015460ff161561099e5760405162461bcd60e51b815260040161021a906120e2565b6040518060e00160405280858152602001848152602001336001600160a01b03168152602001838152602001828152602001600067ffffffffffffffff8111156109f857634e487b7160e01b600052604160045260246000fd5b604051908082528060200260200182016040528015610a21578160200160208202803683370190505b50815260016020918201523360009081526002825260409020825180519192610a4f928492909101906119fe565b506020828101518051610a6892600185019201906119fe565b5060408201516002820180546001600160a01b0319166001600160a01b0390921691909117905560608201518051610aaa9160038401916020909101906119fe565b5060808201518051610ac69160048401916020909101906119fe565b5060a08201518051610ae2916005840191602090910190611a82565b5060c091909101516006909101805460ff191691151591909117905560405133907fc85b128388b9c331a2a5485dce4cd0f3db9f7c279d327ce95d6d39d6c94644c790610b30908790611e7e565b60405180910390a250505050565b60005460ff1615610b615760405162461bcd60e51b815260040161021a90612282565b6000835111610b825760405162461bcd60e51b815260040161021a90611f98565b3360009081526001602052604090206005015460ff1615610bb55760405162461bcd60e51b815260040161021a9061224b565b6040805160c08101825284815233602082015290810183905260608101829052608081016000604051908082528060200260200182016040528015610c04578160200160208202803683370190505b5081526001602091820181905233600090815290825260409020825180519192610c33928492909101906119fe565b506020828101516001830180546001600160a01b0319166001600160a01b0390921691909117905560408301518051610c7292600285019201906119fe565b5060608201518051610c8e9160038401916020909101906119fe565b5060808201518051610caa916004840191602090910190611a82565b5060a091909101516005909101805460ff191691151591909117905560405133907f20481b8112b5bf4734f45a473c373db9df6a79ce946cdc0e7dbc22b4f7d7f986906105bc908690611e7e565b6001600160a01b03811660009081526001602052604081206005810154606092839283928392919060ff16610d3f5760405162461bcd60e51b815260040161021a90612074565b60058101548154829160028301916003840191600485019160ff909116908590610d6890612307565b80601f0160208091040260200160405190810160405280929190818152602001828054610d9490612307565b8015610de15780601f10610db657610100808354040283529160200191610de1565b820191906000526020600020905b815481529060010190602001808311610dc457829003601f168201915b50505050509450838054610df490612307565b80601f0160208091040260200160405190810160405280929190818152602001828054610e2090612307565b8015610e6d5780601f10610e4257610100808354040283529160200191610e6d565b820191906000526020600020905b815481529060010190602001808311610e5057829003601f168201915b50505050509350828054610e8090612307565b80601f0160208091040260200160405190810160405280929190818152602001828054610eac90612307565b8015610ef95780601f10610ece57610100808354040283529160200191610ef9565b820191906000526020600020905b815481529060010190602001808311610edc57829003601f168201915b5050505050925081805480602002602001604051908101604052809291908181526020018280548015610f5557602002820191906000526020600020905b81546001600160a01b03168152600190910190602001808311610f37575b50505050509150955095509550955095505091939590929450565b60608060008060056000866001600160a01b03166001600160a01b031681526020019081526020016000206001018054610fa990612307565b905011610fc85760405162461bcd60e51b815260040161021a906121be565b6001600160a01b038416600090815260056020526040902060038101546001820180549091600284019160ff90911690839061100390612307565b80601f016020809104026020016040519081016040528092919081815260200182805461102f90612307565b801561107c5780601f106110515761010080835404028352916020019161107c565b820191906000526020600020905b81548152906001019060200180831161105f57829003601f168201915b5050505050925081805461108f90612307565b80601f01602080910402602001604051908101604052809291908181526020018280546110bb90612307565b80156111085780601f106110dd57610100808354040283529160200191611108565b820191906000526020600020905b8154815290600101906020018083116110eb57829003601f168201915b50505050509150935093509350509193909250565b3360009081526002602052604090206006015460ff1661114f5760405162461bcd60e51b815260040161021a90612145565b60005460ff16156111725760405162461bcd60e51b815260040161021a90612282565b3360009081526003602090815260408083206001600160a01b038516845290915290205460ff166111b55760405162461bcd60e51b815260040161021a90612221565b3360008181526003602090815260408083206001600160a01b03861684528252808320805460ff1916905592825260029052908120600501905b815481101561132e57826001600160a01b031682828154811061122257634e487b7160e01b600052603260045260246000fd5b6000918252602090912001546001600160a01b0316141561131c578154829061124d906001906122f0565b8154811061126b57634e487b7160e01b600052603260045260246000fd5b9060005260206000200160009054906101000a90046001600160a01b03168282815481106112a957634e487b7160e01b600052603260045260246000fd5b9060005260206000200160006101000a8154816001600160a01b0302191690836001600160a01b03160217905550818054806112f557634e487b7160e01b600052603160045260246000fd5b600082815260209020810160001990810180546001600160a01b031916905501905561132e565b8061132681612342565b9150506111ef565b506001600160a01b0382166000908152600160205260408120600401905b815481101561148b57336001600160a01b031682828154811061137f57634e487b7160e01b600052603260045260246000fd5b6000918252602090912001546001600160a01b0316141561147957815482906113aa906001906122f0565b815481106113c857634e487b7160e01b600052603260045260246000fd5b9060005260206000200160009054906101000a90046001600160a01b031682828154811061140657634e487b7160e01b600052603260045260246000fd5b9060005260206000200160006101000a8154816001600160a01b0302191690836001600160a01b031602179055508180548061145257634e487b7160e01b600052603160045260246000fd5b600082815260209020810160001990810180546001600160a01b031916905501905561148b565b8061148381612342565b91505061134c565b506040516001600160a01b0384169033907f825c8be24eb0df19500f63e86c29e7d0d951e73056b889b891d85e40938d9b6e90600090a3505050565b6060336001600160a01b038316148061150357506001600160a01b038216600090815260036020908152604080832033845290915290205460ff165b806115365750336001600160a01b037f000000000000000000000000000000000000000000000000000000000000000016145b6115525760405162461bcd60e51b815260040161021a90612191565b6001600160a01b038216600090815260046020908152604080832080548251818502810185019093528083529193909284015b8282101561177757838290600052602060002090600402016040518060800160405290816000820180546115b890612307565b80601f01602080910402602001604051908101604052809291908181526020018280546115e490612307565b80156116315780601f1061160657610100808354040283529160200191611631565b820191906000526020600020905b81548152906001019060200180831161161457829003601f168201915b5050505050815260200160018201805461164a90612307565b80601f016020809104026020016040519081016040528092919081815260200182805461167690612307565b80156116c35780601f10611698576101008083540402835291602001916116c3565b820191906000526020600020905b8154815290600101906020018083116116a657829003601f168201915b505050505081526020016002820180546116dc90612307565b80601f016020809104026020016040519081016040528092919081815260200182805461170890612307565b80156117555780601f1061172a57610100808354040283529160200191611755565b820191906000526020600020905b81548152906001019060200180831161173857829003601f168201915b5050505050815260200160038201548152505081526020019060010190611585565b5050505090505b919050565b336001600160a01b037f000000000000000000000000000000000000000000000000000000000000000016146117cb5760405162461bcd60e51b815260040161021a906122ae565b6000805460ff19811660ff918216151791829055161561183e576040516001600160a01b037f000000000000000000000000000000000000000000000000000000000000000016907f81990fd9a5c552b8e3677917d8a03c07678f0d2cb68f88b634aca2022e9bd19f90600090a2611893565b6040516001600160a01b037f000000000000000000000000000000000000000000000000000000000000000016907f5b65b0c1363b3003db9bcc5e1fd8805a6d6bf5bf6dc9d3431ee4494cd7d1176690600090a25b565b3360009081526002602052604090206006015460ff166118c75760405162461bcd60e51b815260040161021a90612145565b60005460ff16156118ea5760405162461bcd60e51b815260040161021a90612282565b600083511161190b5760405162461bcd60e51b815260040161021a90612119565b600081511161192c5760405162461bcd60e51b815260040161021a90612048565b336000908152600460208181526040808420815160808101835288815280840188905291820186905242606083015280546001810182559085529382902081518051929590940201926119839284929101906119fe565b50602082810151805161199c92600185019201906119fe565b50604082015180516119b89160028401916020909101906119fe565b50606082015181600301555050336001600160a01b03167f771ad20575501c8cafc4a8793006515911d6e497fd5838018654c9b50347430c846040516105bc9190611e7e565b828054611a0a90612307565b90600052602060002090601f016020900481019282611a2c5760008555611a72565b82601f10611a4557805160ff1916838001178555611a72565b82800160010185558215611a72579182015b82811115611a72578251825591602001919060010190611a57565b50611a7e929150611ad7565b5090565b828054828255906000526020600020908101928215611a72579160200282015b82811115611a7257825182546001600160a01b0319166001600160a01b03909116178255602090920191600190910190611aa2565b5b80821115611a7e5760008155600101611ad8565b80356001600160a01b038116811461177e57600080fd5b600082601f830112611b13578081fd5b813567ffffffffffffffff80821115611b2e57611b2e612373565b604051601f8301601f191681016020018281118282101715611b5257611b52612373565b604052828152848301602001861015611b69578384fd5b82602086016020830137918201602001929092529392505050565b600060208284031215611b95578081fd5b611b9e82611aec565b9392505050565b60008060408385031215611bb7578081fd5b611bc083611aec565b9150611bce60208401611aec565b90509250929050565b600080600060608486031215611beb578081fd5b611bf484611aec565b9250602084013567ffffffffffffffff80821115611c10578283fd5b611c1c87838801611b03565b93506040860135915080821115611c31578283fd5b50611c3e86828701611b03565b9150509250925092565b600080600060608486031215611c5c578283fd5b833567ffffffffffffffff80821115611c73578485fd5b611c7f87838801611b03565b94506020860135915080821115611c10578384fd5b60008060008060808587031215611ca9578081fd5b843567ffffffffffffffff80821115611cc0578283fd5b611ccc88838901611b03565b95506020870135915080821115611ce1578283fd5b611ced88838901611b03565b94506040870135915080821115611d02578283fd5b611d0e88838901611b03565b93506060870135915080821115611d23578283fd5b50611d3087828801611b03565b91505092959194509250565b6000815180845260208085019450808401835b83811015611d745781516001600160a01b031687529582019590820190600101611d4f565b509495945050505050565b60008151808452815b81811015611da457602081850181015186830182015201611d88565b81811115611db55782602083870101525b50601f01601f19169290920160200192915050565b60208082528251828201819052600091906040908185019080840286018301878501865b83811015611e6557603f19898403018552815160808151818652611e1482870182611d7f565b915050888201518582038a870152611e2c8282611d7f565b9150508782015185820389870152611e448282611d7f565b60609384015196909301959095525094870194925090860190600101611dee565b509098975050505050505050565b901515815260200190565b600060208252611b9e6020830184611d7f565b600060608252611ea46060830186611d7f565b8281036020840152611eb68186611d7f565b9150508215156040830152949350505050565b600060a08252611edc60a0830188611d7f565b8281036020840152611eee8188611d7f565b90508281036040840152611f028187611d7f565b90508281036060840152611f168186611d3c565b91505082151560808301529695505050505050565b600060a08252611f3e60a0830188611d7f565b8281036020840152611f508188611d7f565b90508281036040840152611f648187611d7f565b90508281036060840152611f788186611d7f565b90508281036080840152611f8c8185611d3c565b98975050505050505050565b6020808252600d908201526c13985b59481c995c5d5a5c9959609a1b604082015260600190565b6020808252600f908201526e496e76616c6964206164647265737360881b604082015260600190565b602080825260169082015275496e76616c696420646f63746f72206164647265737360501b604082015260600190565b6020808252601690820152751058d8d95cdcc8185b1c9958591e4819dc985b9d195960521b604082015260600190565b602080825260129082015271119a5b19481a185cda081c995c5d5a5c995960721b604082015260600190565b6020808252601c908201527f446f63746f72206e6f7420666f756e64206f7220696e61637469766500000000604082015260600190565b6020808252601b908201527f43616e6e6f74206772616e742061636365737320746f2073656c660000000000604082015260600190565b6020808252601a908201527f50617469656e7420616c72656164792072656769737465726564000000000000604082015260600190565b602080825260129082015271119a5b19481b985b59481c995c5d5a5c995960721b604082015260600190565b6020808252602c908201527f4f6e6c79206163746976652070617469656e74732063616e20706572666f726d60408201526b103a3434b99030b1ba34b7b760a11b606082015260800190565b602080825260139082015272556e617574686f72697a65642061636365737360681b604082015260600190565b602080825260129082015271121bdcdc1a5d185b081b9bdd08199bdd5b9960721b604082015260600190565b6020808252601b908201527f486f73706974616c20616c726561647920726567697374657265640000000000604082015260600190565b60208082526010908201526f1058d8d95cdcc81b9bdd08199bdd5b9960821b604082015260600190565b60208082526019908201527f446f63746f7220616c7265616479207265676973746572656400000000000000604082015260600190565b60208082526012908201527110dbdb9d1c9858dd081a5cc81c185d5cd95960721b604082015260600190565b60208082526022908201527f4f6e6c79206f776e65722063616e20706572666f726d2074686973206163746960408201526137b760f11b606082015260800190565b6000828210156123025761230261235d565b500390565b60028104600182168061231b57607f821691505b6020821081141561233c57634e487b7160e01b600052602260045260246000fd5b50919050565b60006000198214156123565761235661235d565b5060010190565b634e487b7160e01b600052601160045260246000fd5b634e487b7160e01b600052604160045260246000fdfea2646970667358221220ad639c3545323f34319de7ffd4d3acfdcca57cd178d252d460aff664f727d43964736f6c63430008000033",
  "linkReferences": {},
  "deployedLinkReferences": {}
}